{
  "contractName": "Assignment2",
  "abi": [
    {
      "constant": false,
      "inputs": [
        {
          "name": "_classIdx",
          "type": "string"
        },
        {
          "name": "_code",
          "type": "int256"
        },
        {
          "name": "_name",
          "type": "string"
        },
        {
          "name": "_score",
          "type": "int256"
        }
      ],
      "name": "setStudent",
      "outputs": [],
      "payable": false,
      "stateMutability": "nonpayable",
      "type": "function"
    },
    {
      "constant": true,
      "inputs": [
        {
          "name": "_classIdx",
          "type": "string"
        },
        {
          "name": "_code",
          "type": "int256"
        }
      ],
      "name": "getStudent",
      "outputs": [
        {
          "name": "",
          "type": "int256"
        },
        {
          "name": "",
          "type": "string"
        },
        {
          "name": "",
          "type": "int256"
        }
      ],
      "payable": false,
      "stateMutability": "view",
      "type": "function"
    },
    {
      "constant": true,
      "inputs": [
        {
          "name": "_classIdx",
          "type": "string"
        },
        {
          "name": "_minScore",
          "type": "int256"
        }
      ],
      "name": "getStudentByScore",
      "outputs": [
        {
          "name": "",
          "type": "int256"
        },
        {
          "name": "",
          "type": "string"
        },
        {
          "name": "",
          "type": "int256"
        }
      ],
      "payable": false,
      "stateMutability": "view",
      "type": "function"
    },
    {
      "constant": true,
      "inputs": [
        {
          "name": "_classIdx",
          "type": "string"
        }
      ],
      "name": "getStudentCountInClass",
      "outputs": [
        {
          "name": "",
          "type": "uint256"
        }
      ],
      "payable": false,
      "stateMutability": "view",
      "type": "function"
    },
    {
      "constant": false,
      "inputs": [
        {
          "name": "_classIdx",
          "type": "string"
        },
        {
          "name": "_code",
          "type": "int256"
        }
      ],
      "name": "removeStudent",
      "outputs": [
        {
          "name": "",
          "type": "bool"
        }
      ],
      "payable": false,
      "stateMutability": "nonpayable",
      "type": "function"
    }
  ],
  "bytecode": "0x608060405234801561001057600080fd5b50610e87806100206000396000f30060806040526004361061006d576000357c0100000000000000000000000000000000000000000000000000000000900463ffffffff16806303043ae21461007257806336f15dd01461016c57806354a741c314610266578063a76b2a17146102f1578063d8143111146103b4575b600080fd5b34801561007e57600080fd5b506100e3600480360381019080803590602001908201803590602001908080601f016020809104026020016040519081016040528093929190818152602001838380828437820191505050505050919291929080359060200190929190505050610431565b6040518084815260200180602001838152602001828103825284818151815260200191508051906020019080838360005b8381101561012f578082015181840152602081019050610114565b50505050905090810190601f16801561015c5780820380516001836020036101000a031916815260200191505b5094505050505060405180910390f35b34801561017857600080fd5b506101dd600480360381019080803590602001908201803590602001908080601f0160208091040260200160405190810160405280939291908181526020018383808284378201915050505050509192919290803590602001909291905050506107c0565b6040518084815260200180602001838152602001828103825284818151815260200191508051906020019080838360005b8381101561022957808201518184015260208101905061020e565b50505050905090810190601f1680156102565780820380516001836020036101000a031916815260200191505b5094505050505060405180910390f35b34801561027257600080fd5b506102d7600480360381019080803590602001908201803590602001908080601f016020809104026020016040519081016040528093929190818152602001838380828437820191505050505050919291929080359060200190929190505050610a0e565b604051808215151515815260200191505060405180910390f35b3480156102fd57600080fd5b506103b2600480360381019080803590602001908201803590602001908080601f016020809104026020016040519081016040528093929190818152602001838380828437820191505050505050919291929080359060200190929190803590602001908201803590602001908080601f016020809104026020016040519081016040528093929190818152602001838380828437820191505050505050919291929080359060200190929190505050610c03565b005b3480156103c057600080fd5b5061041b600480360381019080803590602001908201803590602001908080601f0160208091040260200160405190810160405280939291908181526020018383808284378201915050505050509192919290505050610cfb565b6040518082815260200191505060405180910390f35b60006060600080600090505b6000866040518082805190602001908083835b6020831015156104755780518252602082019150602081019050602083039250610450565b6001836020036101000a038019825116818451168082178552505050505050905001915050908152602001604051809103902080549050811015610796576000866040518082805190602001908083835b6020831015156104eb57805182526020820191506020810190506020830392506104c6565b6001836020036101000a03801982511681845116808217855250505050505090500191505090815260200160405180910390208181548110151561052b57fe5b90600052602060002090600302016002015485121515610789576000866040518082805190602001908083835b60208310151561057d5780518252602082019150602081019050602083039250610558565b6001836020036101000a0380198251168184511680821785525050505050509050019150509081526020016040518091039020818154811015156105bd57fe5b9060005260206000209060030201600101546000876040518082805190602001908083835b60208310151561060757805182526020820191506020810190506020830392506105e2565b6001836020036101000a03801982511681845116808217855250505050505090500191505090815260200160405180910390208281548110151561064757fe5b90600052602060002090600302016000016000886040518082805190602001908083835b602083101515610690578051825260208201915060208101905060208303925061066b565b6001836020036101000a0380198251168184511680821785525050505050509050019150509081526020016040518091039020838154811015156106d057fe5b906000526020600020906003020160020154818054600181600116156101000203166002900480601f0160208091040260200160405190810160405280929190818152602001828054600181600116156101000203166002900480156107775780601f1061074c57610100808354040283529160200191610777565b820191906000526020600020905b81548152906001019060200180831161075a57829003601f168201915b505050505091509350935093506107b8565b808060010191505061043d565b6000808191506020604051908101604052806000815250908090509350935093505b509250925092565b6000606060006060600080876040518082805190602001908083835b60208310151561080157805182526020820191506020810190506020830392506107dc565b6001836020036101000a0380198251168184511680821785525050505050509050019150509081526020016040518091039020805480602002602001604051908101604052809291908181526020016000905b8282101561093d578382906000526020600020906003020160606040519081016040529081600082018054600181600116156101000203166002900480601f0160208091040260200160405190810160405280929190818152602001828054600181600116156101000203166002900480156109115780601f106108e657610100808354040283529160200191610911565b820191906000526020600020905b8154815290600101906020018083116108f457829003601f168201915b505050505081526020016001820154815260200160028201548152505081526020019060010190610854565b505050509150600090505b81518110156109e35785828281518110151561096057fe5b906020019060200201516020015114156109d657818181518110151561098257fe5b9060200190602002015160200151828281518110151561099e57fe5b906020019060200201516000015183838151811015156109ba57fe5b9060200190602002015160400151819150945094509450610a05565b8080600101915050610948565b6000808191506020604051908101604052806000815250908090509450945094505b50509250925092565b60006060600080856040518082805190602001908083835b602083101515610a4b5780518252602082019150602081019050602083039250610a26565b6001836020036101000a0380198251168184511680821785525050505050509050019150509081526020016040518091039020805480602002602001604051908101604052809291908181526020016000905b82821015610b87578382906000526020600020906003020160606040519081016040529081600082018054600181600116156101000203166002900480601f016020809104026020016040519081016040528092919081815260200182805460018160011615610100020316600290048015610b5b5780601f10610b3057610100808354040283529160200191610b5b565b820191906000526020600020905b815481529060010190602001808311610b3e57829003601f168201915b505050505081526020016001820154815260200160028201548152505081526020019060010190610a9e565b505050509150600090505b8151811015610bf657838282815181101515610baa57fe5b90602001906020020151602001511415610be9578181815181101515610bcc57fe5b906020019060200201610bdd610d72565b81525060019250610bfb565b8080600101915050610b92565b600092505b505092915050565b610c0b610d94565b6060604051908101604052808481526020018581526020018381525090506000856040518082805190602001908083835b602083101515610c615780518252602082019150602081019050602083039250610c3c565b6001836020036101000a038019825116818451168082178552505050505050905001915050908152602001604051809103902081908060018154018082558091505090600182039060005260206000209060030201600090919290919091506000820151816000019080519060200190610cdc929190610db6565b5060208201518160010155604082015181600201555050505050505050565b600080826040518082805190602001908083835b602083101515610d345780518252602082019150602081019050602083039250610d0f565b6001836020036101000a0380198251168184511680821785525050505050509050019150509081526020016040518091039020805490509050919050565b6060604051908101604052806060815260200160008152602001600081525090565b6060604051908101604052806060815260200160008152602001600081525090565b828054600181600116156101000203166002900490600052602060002090601f016020900481019282601f10610df757805160ff1916838001178555610e25565b82800160010185558215610e25579182015b82811115610e24578251825591602001919060010190610e09565b5b509050610e329190610e36565b5090565b610e5891905b80821115610e54576000816000905550600101610e3c565b5090565b905600a165627a7a723058201ab6935aae2da7f2cb49b7d10029d7b44a7fffb4e6b974692121d7ad0cff58e60029",
  "source": "pragma solidity ^0.4.19;\r\n\r\ncontract Assignment2{\r\n    struct Student{\r\n        string name;\r\n        int code;\r\n        int score;\r\n    }\r\n\r\n    mapping(string => Student[]) class;\r\n\r\n    \r\n    //setting students with address and student details.\r\n\r\n    function setStudent(string _classIdx,int _code,string _name,int _score) public{\r\n        Student memory newStudent = Student(_name,_code,_score);\r\n        class[_classIdx].push(newStudent);        \r\n    }\r\n\r\n    \r\n    //getting specific student.\r\n    function getStudent(string _classIdx,int _code) public view returns (int, string, int){\r\n        Student[] memory students;\r\n        students = class[_classIdx];\r\n        for(uint idx = 0; idx < students.length; idx++){\r\n            if(students[idx].code == _code){\r\n                return (students[idx].code,students[idx].name,students[idx].score);\r\n            }\r\n        }\r\n        return(0,\"\",0);        \r\n    }\r\n\r\n    function getStudentByScore(string _classIdx, int _minScore) public view returns (int,string,int){\r\n        for(uint i = 0; i<class[_classIdx].length;i++){\r\n            if(_minScore >= class[_classIdx][i].score ){\r\n                return (class[_classIdx][i].code, class[_classIdx][i].name, class[_classIdx][i].score);\r\n            }\r\n        }\r\n        //return empty string\r\n        return (0,\"\",0);\r\n    }\r\n\r\n    //getting count of student\r\n    function getStudentCountInClass(string _classIdx) public view returns(uint){\r\n        return class[_classIdx].length;\r\n    }\r\n    \r\n    //removing specefic student\r\n    function removeStudent(string _classIdx,int _code) public returns (bool){\r\n        Student[] memory students = class[_classIdx];\r\n        for(uint idx = 0; idx < students.length; idx++){\r\n            if(students[idx].code == _code){\r\n                delete students[idx];\r\n                return true;\r\n            }\r\n        }\r\n        return false;\r\n    }\r\n\r\n    \r\n    \r\n\r\n}",
  "sourcePath": "C:\\blockchain\\assignment1\\contracts\\Assignment2.sol",
  "compiler": {
    "name": "solc",
    "version": "0.4.24+commit.e67f0147.Emscripten.clang"
  },
  "schemaVersion": "2.0.1",
  "updatedAt": "2018-08-19T07:09:55.738Z"
}