{
  "contractName": "Assignment1",
  "abi": [
    {
      "constant": false,
      "inputs": [
        {
          "name": "_idx",
          "type": "string"
        },
        {
          "name": "code",
          "type": "int256"
        },
        {
          "name": "name",
          "type": "string"
        },
        {
          "name": "class",
          "type": "string"
        }
      ],
      "name": "setStudent",
      "outputs": [],
      "payable": false,
      "stateMutability": "nonpayable",
      "type": "function"
    },
    {
      "constant": true,
      "inputs": [
        {
          "name": "_idx",
          "type": "string"
        }
      ],
      "name": "getStudent",
      "outputs": [
        {
          "name": "",
          "type": "int256"
        },
        {
          "name": "",
          "type": "string"
        },
        {
          "name": "",
          "type": "string"
        }
      ],
      "payable": false,
      "stateMutability": "view",
      "type": "function"
    }
  ],
  "bytecode": "0x608060405234801561001057600080fd5b5061070d806100206000396000f30060806040526004361061004c576000357c0100000000000000000000000000000000000000000000000000000000900463ffffffff16806365efcb1314610051578063d029661214610150575b600080fd5b34801561005d57600080fd5b5061014e600480360381019080803590602001908201803590602001908080601f016020809104026020016040519081016040528093929190818152602001838380828437820191505050505050919291929080359060200190929190803590602001908201803590602001908080601f0160208091040260200160405190810160405280939291908181526020018383808284378201915050505050509192919290803590602001908201803590602001908080601f01602080910402602001604051908101604052809392919081815260200183838082843782019150505050505091929192905050506102a5565b005b34801561015c57600080fd5b506101b7600480360381019080803590602001908201803590602001908080601f0160208091040260200160405190810160405280939291908181526020018383808284378201915050505050509192919290505050610385565b604051808481526020018060200180602001838103835285818151815260200191508051906020019080838360005b838110156102015780820151818401526020810190506101e6565b50505050905090810190601f16801561022e5780820380516001836020036101000a031916815260200191505b50838103825284818151815260200191508051906020019080838360005b8381101561026757808201518184015260208101905061024c565b50505050905090810190601f1680156102945780820380516001836020036101000a031916815260200191505b509550505050505060405180910390f35b6102ad61061a565b606060405190810160405280848152602001858152602001838152509050806000866040518082805190602001908083835b60208310151561030457805182526020820191506020810190506020830392506102df565b6001836020036101000a0380198251168184511680821785525050505050509050019150509081526020016040518091039020600082015181600001908051906020019061035392919061063c565b5060208201518160010155604082015181600201908051906020019061037a92919061063c565b509050505050505050565b60006060806000846040518082805190602001908083835b6020831015156103c2578051825260208201915060208101905060208303925061039d565b6001836020036101000a0380198251168184511680821785525050505050509050019150509081526020016040518091039020600101546000856040518082805190602001908083835b602083101515610431578051825260208201915060208101905060208303925061040c565b6001836020036101000a03801982511681845116808217855250505050505090500191505090815260200160405180910390206000016000866040518082805190602001908083835b60208310151561049f578051825260208201915060208101905060208303925061047a565b6001836020036101000a0380198251168184511680821785525050505050509050019150509081526020016040518091039020600201818054600181600116156101000203166002900480601f01602080910402602001604051908101604052809291908181526020018280546001816001161561010002031660029004801561056a5780601f1061053f5761010080835404028352916020019161056a565b820191906000526020600020905b81548152906001019060200180831161054d57829003601f168201915b50505050509150808054600181600116156101000203166002900480601f0160208091040260200160405190810160405280929190818152602001828054600181600116156101000203166002900480156106065780601f106105db57610100808354040283529160200191610606565b820191906000526020600020905b8154815290600101906020018083116105e957829003601f168201915b505050505090509250925092509193909250565b6060604051908101604052806060815260200160008152602001606081525090565b828054600181600116156101000203166002900490600052602060002090601f016020900481019282601f1061067d57805160ff19168380011785556106ab565b828001600101855582156106ab579182015b828111156106aa57825182559160200191906001019061068f565b5b5090506106b891906106bc565b5090565b6106de91905b808211156106da5760008160009055506001016106c2565b5090565b905600a165627a7a72305820e203c33677cb4a16a1cb2b32ee72c7a6183af3568efd409f73c7b0d4a3816a6c0029",
  "source": "pragma solidity ^0.4.19;\r\n\r\ncontract Assignment1{\r\n    struct Student{\r\n        string name;\r\n        int code;\r\n        string class;\r\n    }\r\n\r\n    mapping(string => Student) students;\r\n\r\n    \r\n    //setting students with address and student details.\r\n\r\n    function setStudent(string _idx,int code,string name,string class) public{\r\n        Student memory newStudent = Student(name,code,class);\r\n        students[_idx] = newStudent;\r\n        \r\n    }\r\n\r\n    \r\n    //getting specific student.\r\n    function getStudent(string _idx) public view returns (int, string, string){\r\n        //Student memory student = students[_idx];\r\n        return (students[_idx].code,students[_idx].name,students[_idx].class);\r\n    }\r\n\r\n}",
  "sourcePath": "C:\\blockchain\\assignment1\\contracts\\Assignment1.sol",
  "compiler": {
    "name": "solc",
    "version": "0.4.24+commit.e67f0147.Emscripten.clang"
  },
  "schemaVersion": "2.0.1",
  "updatedAt": "2018-08-19T07:09:55.743Z"
}